{
  "_format": "hh-sol-artifact-1",
  "contractName": "MyErcNFT_Enumerable",
  "sourceName": "contracts/MyErcNFT_Enumerable.sol",
  "abi": [
    {
      "inputs": [],
      "stateMutability": "nonpayable",
      "type": "constructor"
    },
    {
      "anonymous": false,
      "inputs": [
        {
          "indexed": true,
          "internalType": "address",
          "name": "owner",
          "type": "address"
        },
        {
          "indexed": true,
          "internalType": "address",
          "name": "approved",
          "type": "address"
        },
        {
          "indexed": true,
          "internalType": "uint256",
          "name": "tokenId",
          "type": "uint256"
        }
      ],
      "name": "Approval",
      "type": "event"
    },
    {
      "anonymous": false,
      "inputs": [
        {
          "indexed": true,
          "internalType": "address",
          "name": "owner",
          "type": "address"
        },
        {
          "indexed": true,
          "internalType": "address",
          "name": "operator",
          "type": "address"
        },
        {
          "indexed": false,
          "internalType": "bool",
          "name": "approved",
          "type": "bool"
        }
      ],
      "name": "ApprovalForAll",
      "type": "event"
    },
    {
      "anonymous": false,
      "inputs": [
        {
          "indexed": true,
          "internalType": "address",
          "name": "from",
          "type": "address"
        },
        {
          "indexed": true,
          "internalType": "address",
          "name": "to",
          "type": "address"
        },
        {
          "indexed": true,
          "internalType": "uint256",
          "name": "tokenId",
          "type": "uint256"
        }
      ],
      "name": "Transfer",
      "type": "event"
    },
    {
      "inputs": [
        {
          "internalType": "address",
          "name": "owner",
          "type": "address"
        },
        {
          "internalType": "string",
          "name": "tokenURI",
          "type": "string"
        }
      ],
      "name": "addNFTData",
      "outputs": [
        {
          "internalType": "uint256",
          "name": "",
          "type": "uint256"
        }
      ],
      "stateMutability": "nonpayable",
      "type": "function"
    },
    {
      "inputs": [
        {
          "internalType": "address",
          "name": "to",
          "type": "address"
        },
        {
          "internalType": "uint256",
          "name": "tokenId",
          "type": "uint256"
        }
      ],
      "name": "approve",
      "outputs": [],
      "stateMutability": "nonpayable",
      "type": "function"
    },
    {
      "inputs": [
        {
          "internalType": "address",
          "name": "owner",
          "type": "address"
        }
      ],
      "name": "balanceOf",
      "outputs": [
        {
          "internalType": "uint256",
          "name": "",
          "type": "uint256"
        }
      ],
      "stateMutability": "view",
      "type": "function"
    },
    {
      "inputs": [
        {
          "internalType": "uint256",
          "name": "tokenId",
          "type": "uint256"
        }
      ],
      "name": "getApproved",
      "outputs": [
        {
          "internalType": "address",
          "name": "",
          "type": "address"
        }
      ],
      "stateMutability": "view",
      "type": "function"
    },
    {
      "inputs": [
        {
          "internalType": "address",
          "name": "owner",
          "type": "address"
        },
        {
          "internalType": "address",
          "name": "operator",
          "type": "address"
        }
      ],
      "name": "isApprovedForAll",
      "outputs": [
        {
          "internalType": "bool",
          "name": "",
          "type": "bool"
        }
      ],
      "stateMutability": "view",
      "type": "function"
    },
    {
      "inputs": [],
      "name": "name",
      "outputs": [
        {
          "internalType": "string",
          "name": "",
          "type": "string"
        }
      ],
      "stateMutability": "view",
      "type": "function"
    },
    {
      "inputs": [
        {
          "internalType": "uint256",
          "name": "tokenId",
          "type": "uint256"
        }
      ],
      "name": "ownerOf",
      "outputs": [
        {
          "internalType": "address",
          "name": "",
          "type": "address"
        }
      ],
      "stateMutability": "view",
      "type": "function"
    },
    {
      "inputs": [
        {
          "internalType": "address",
          "name": "from",
          "type": "address"
        },
        {
          "internalType": "address",
          "name": "to",
          "type": "address"
        },
        {
          "internalType": "uint256",
          "name": "tokenId",
          "type": "uint256"
        }
      ],
      "name": "safeTransferFrom",
      "outputs": [],
      "stateMutability": "nonpayable",
      "type": "function"
    },
    {
      "inputs": [
        {
          "internalType": "address",
          "name": "from",
          "type": "address"
        },
        {
          "internalType": "address",
          "name": "to",
          "type": "address"
        },
        {
          "internalType": "uint256",
          "name": "tokenId",
          "type": "uint256"
        },
        {
          "internalType": "bytes",
          "name": "_data",
          "type": "bytes"
        }
      ],
      "name": "safeTransferFrom",
      "outputs": [],
      "stateMutability": "nonpayable",
      "type": "function"
    },
    {
      "inputs": [
        {
          "internalType": "address",
          "name": "operator",
          "type": "address"
        },
        {
          "internalType": "bool",
          "name": "approved",
          "type": "bool"
        }
      ],
      "name": "setApprovalForAll",
      "outputs": [],
      "stateMutability": "nonpayable",
      "type": "function"
    },
    {
      "inputs": [
        {
          "internalType": "bytes4",
          "name": "interfaceId",
          "type": "bytes4"
        }
      ],
      "name": "supportsInterface",
      "outputs": [
        {
          "internalType": "bool",
          "name": "",
          "type": "bool"
        }
      ],
      "stateMutability": "view",
      "type": "function"
    },
    {
      "inputs": [],
      "name": "symbol",
      "outputs": [
        {
          "internalType": "string",
          "name": "",
          "type": "string"
        }
      ],
      "stateMutability": "view",
      "type": "function"
    },
    {
      "inputs": [
        {
          "internalType": "uint256",
          "name": "index",
          "type": "uint256"
        }
      ],
      "name": "tokenByIndex",
      "outputs": [
        {
          "internalType": "uint256",
          "name": "",
          "type": "uint256"
        }
      ],
      "stateMutability": "view",
      "type": "function"
    },
    {
      "inputs": [
        {
          "internalType": "address",
          "name": "owner",
          "type": "address"
        },
        {
          "internalType": "uint256",
          "name": "index",
          "type": "uint256"
        }
      ],
      "name": "tokenOfOwnerByIndex",
      "outputs": [
        {
          "internalType": "uint256",
          "name": "",
          "type": "uint256"
        }
      ],
      "stateMutability": "view",
      "type": "function"
    },
    {
      "inputs": [
        {
          "internalType": "uint256",
          "name": "tokenId",
          "type": "uint256"
        }
      ],
      "name": "tokenURI",
      "outputs": [
        {
          "internalType": "string",
          "name": "",
          "type": "string"
        }
      ],
      "stateMutability": "view",
      "type": "function"
    },
    {
      "inputs": [],
      "name": "totalSupply",
      "outputs": [
        {
          "internalType": "uint256",
          "name": "",
          "type": "uint256"
        }
      ],
      "stateMutability": "view",
      "type": "function"
    },
    {
      "inputs": [
        {
          "internalType": "address",
          "name": "from",
          "type": "address"
        },
        {
          "internalType": "address",
          "name": "to",
          "type": "address"
        },
        {
          "internalType": "uint256",
          "name": "tokenId",
          "type": "uint256"
        }
      ],
      "name": "transferFrom",
      "outputs": [],
      "stateMutability": "nonpayable",
      "type": "function"
    }
  ],
  "bytecode": "0x60806040523480156200001157600080fd5b506040518060400160405280601381526020017f4d794572634e46545f456e756d657261626c65000000000000000000000000008152506040518060400160405280600681526020017f4d454e4654450000000000000000000000000000000000000000000000000000815250816000908051906020019062000096929190620000b8565b508060019080519060200190620000af929190620000b8565b505050620001cd565b828054620000c69062000168565b90600052602060002090601f016020900481019282620000ea576000855562000136565b82601f106200010557805160ff191683800117855562000136565b8280016001018555821562000136579182015b828111156200013557825182559160200191906001019062000118565b5b50905062000145919062000149565b5090565b5b80821115620001645760008160009055506001016200014a565b5090565b600060028204905060018216806200018157607f821691505b602082108114156200019857620001976200019e565b5b50919050565b7f4e487b7100000000000000000000000000000000000000000000000000000000600052602260045260246000fd5b6133df80620001dd6000396000f3fe608060405234801561001057600080fd5b506004361061010b5760003560e01c806347714b45116100a257806395d89b411161007157806395d89b41146102f0578063a22cb4651461030e578063b88d4fde1461032a578063c87b56dd14610346578063e985e9c5146103765761010b565b806347714b45146102305780634f6ccce7146102605780636352211e1461029057806370a08231146102c05761010b565b806318160ddd116100de57806318160ddd146101aa57806323b872dd146101c85780632f745c59146101e457806342842e0e146102145761010b565b806301ffc9a71461011057806306fdde0314610140578063081812fc1461015e578063095ea7b31461018e575b600080fd5b61012a60048036038101906101259190612368565b6103a6565b60405161013791906127b4565b60405180910390f35b6101486103b8565b60405161015591906127cf565b60405180910390f35b610178600480360381019061017391906123ba565b61044a565b604051610185919061274d565b60405180910390f35b6101a860048036038101906101a3919061232c565b6104cf565b005b6101b26105e7565b6040516101bf9190612a31565b60405180910390f35b6101e260048036038101906101dd91906121d2565b6105f4565b005b6101fe60048036038101906101f9919061232c565b610654565b60405161020b9190612a31565b60405180910390f35b61022e600480360381019061022991906121d2565b6106f9565b005b61024a600480360381019061024591906122d8565b610719565b6040516102579190612a31565b60405180910390f35b61027a600480360381019061027591906123ba565b610750565b6040516102879190612a31565b60405180910390f35b6102aa60048036038101906102a591906123ba565b6107e7565b6040516102b7919061274d565b60405180910390f35b6102da60048036038101906102d5919061216d565b610899565b6040516102e79190612a31565b60405180910390f35b6102f8610951565b60405161030591906127cf565b60405180910390f35b6103286004803603810190610323919061229c565b6109e3565b005b610344600480360381019061033f9190612221565b6109f9565b005b610360600480360381019061035b91906123ba565b610a5b565b60405161036d91906127cf565b60405180910390f35b610390600480360381019061038b9190612196565b610a6d565b60405161039d91906127b4565b60405180910390f35b60006103b182610b01565b9050919050565b6060600080546103c790612c87565b80601f01602080910402602001604051908101604052809291908181526020018280546103f390612c87565b80156104405780601f1061041557610100808354040283529160200191610440565b820191906000526020600020905b81548152906001019060200180831161042357829003601f168201915b5050505050905090565b600061045582610b7b565b610494576040517f08c379a000000000000000000000000000000000000000000000000000000000815260040161048b90612991565b60405180910390fd5b6004600083815260200190815260200160002060009054906101000a900473ffffffffffffffffffffffffffffffffffffffff169050919050565b60006104da826107e7565b90508073ffffffffffffffffffffffffffffffffffffffff168373ffffffffffffffffffffffffffffffffffffffff16141561054b576040517f08c379a0000000000000000000000000000000000000000000000000000000008152600401610542906129d1565b60405180910390fd5b8073ffffffffffffffffffffffffffffffffffffffff1661056a610be7565b73ffffffffffffffffffffffffffffffffffffffff161480610599575061059881610593610be7565b610a6d565b5b6105d8576040517f08c379a00000000000000000000000000000000000000000000000000000000081526004016105cf906128d1565b60405180910390fd5b6105e28383610bef565b505050565b6000600880549050905090565b6106056105ff610be7565b82610ca8565b610644576040517f08c379a000000000000000000000000000000000000000000000000000000000815260040161063b906129f1565b60405180910390fd5b61064f838383610d86565b505050565b600061065f83610899565b82106106a0576040517f08c379a0000000000000000000000000000000000000000000000000000000008152600401610697906127f1565b60405180910390fd5b600660008473ffffffffffffffffffffffffffffffffffffffff1673ffffffffffffffffffffffffffffffffffffffff168152602001908152602001600020600083815260200190815260200160002054905092915050565b610714838383604051806020016040528060008152506109f9565b505050565b600080610726600b610fed565b90506107328482610ffb565b61073c81846111d5565b610746600b611249565b8091505092915050565b600061075a6105e7565b821061079b576040517f08c379a000000000000000000000000000000000000000000000000000000000815260040161079290612a11565b60405180910390fd5b600882815481106107d5577f4e487b7100000000000000000000000000000000000000000000000000000000600052603260045260246000fd5b90600052602060002001549050919050565b6000806002600084815260200190815260200160002060009054906101000a900473ffffffffffffffffffffffffffffffffffffffff169050600073ffffffffffffffffffffffffffffffffffffffff168173ffffffffffffffffffffffffffffffffffffffff161415610890576040517f08c379a000000000000000000000000000000000000000000000000000000000815260040161088790612911565b60405180910390fd5b80915050919050565b60008073ffffffffffffffffffffffffffffffffffffffff168273ffffffffffffffffffffffffffffffffffffffff16141561090a576040517f08c379a0000000000000000000000000000000000000000000000000000000008152600401610901906128f1565b60405180910390fd5b600360008373ffffffffffffffffffffffffffffffffffffffff1673ffffffffffffffffffffffffffffffffffffffff168152602001908152602001600020549050919050565b60606001805461096090612c87565b80601f016020809104026020016040519081016040528092919081815260200182805461098c90612c87565b80156109d95780601f106109ae576101008083540402835291602001916109d9565b820191906000526020600020905b8154815290600101906020018083116109bc57829003601f168201915b5050505050905090565b6109f56109ee610be7565b838361125f565b5050565b610a0a610a04610be7565b83610ca8565b610a49576040517f08c379a0000000000000000000000000000000000000000000000000000000008152600401610a40906129f1565b60405180910390fd5b610a55848484846113cc565b50505050565b6060610a6682611428565b9050919050565b6000600560008473ffffffffffffffffffffffffffffffffffffffff1673ffffffffffffffffffffffffffffffffffffffff16815260200190815260200160002060008373ffffffffffffffffffffffffffffffffffffffff1673ffffffffffffffffffffffffffffffffffffffff16815260200190815260200160002060009054906101000a900460ff16905092915050565b60007f780e9d63000000000000000000000000000000000000000000000000000000007bffffffffffffffffffffffffffffffffffffffffffffffffffffffff1916827bffffffffffffffffffffffffffffffffffffffffffffffffffffffff19161480610b745750610b738261157a565b5b9050919050565b60008073ffffffffffffffffffffffffffffffffffffffff166002600084815260200190815260200160002060009054906101000a900473ffffffffffffffffffffffffffffffffffffffff1673ffffffffffffffffffffffffffffffffffffffff1614159050919050565b600033905090565b816004600083815260200190815260200160002060006101000a81548173ffffffffffffffffffffffffffffffffffffffff021916908373ffffffffffffffffffffffffffffffffffffffff160217905550808273ffffffffffffffffffffffffffffffffffffffff16610c62836107e7565b73ffffffffffffffffffffffffffffffffffffffff167f8c5be1e5ebec7d5bd14f71427d1e84f3dd0314c0f7b2291e5b200ac8c7c3b92560405160405180910390a45050565b6000610cb382610b7b565b610cf2576040517f08c379a0000000000000000000000000000000000000000000000000000000008152600401610ce9906128b1565b60405180910390fd5b6000610cfd836107e7565b90508073ffffffffffffffffffffffffffffffffffffffff168473ffffffffffffffffffffffffffffffffffffffff161480610d3f5750610d3e8185610a6d565b5b80610d7d57508373ffffffffffffffffffffffffffffffffffffffff16610d658461044a565b73ffffffffffffffffffffffffffffffffffffffff16145b91505092915050565b8273ffffffffffffffffffffffffffffffffffffffff16610da6826107e7565b73ffffffffffffffffffffffffffffffffffffffff1614610dfc576040517f08c379a0000000000000000000000000000000000000000000000000000000008152600401610df390612831565b60405180910390fd5b600073ffffffffffffffffffffffffffffffffffffffff168273ffffffffffffffffffffffffffffffffffffffff161415610e6c576040517f08c379a0000000000000000000000000000000000000000000000000000000008152600401610e6390612871565b60405180910390fd5b610e7783838361165c565b610e82600082610bef565b6001600360008573ffffffffffffffffffffffffffffffffffffffff1673ffffffffffffffffffffffffffffffffffffffff1681526020019081526020016000206000828254610ed29190612b9d565b925050819055506001600360008473ffffffffffffffffffffffffffffffffffffffff1673ffffffffffffffffffffffffffffffffffffffff1681526020019081526020016000206000828254610f299190612b16565b92505081905550816002600083815260200190815260200160002060006101000a81548173ffffffffffffffffffffffffffffffffffffffff021916908373ffffffffffffffffffffffffffffffffffffffff160217905550808273ffffffffffffffffffffffffffffffffffffffff168473ffffffffffffffffffffffffffffffffffffffff167fddf252ad1be2c89b69c2b068fc378daa952ba7f163c4a11628f55a4df523b3ef60405160405180910390a4610fe883838361166c565b505050565b600081600001549050919050565b600073ffffffffffffffffffffffffffffffffffffffff168273ffffffffffffffffffffffffffffffffffffffff16141561106b576040517f08c379a000000000000000000000000000000000000000000000000000000000815260040161106290612951565b60405180910390fd5b61107481610b7b565b156110b4576040517f08c379a00000000000000000000000000000000000000000000000000000000081526004016110ab90612851565b60405180910390fd5b6110c06000838361165c565b6001600360008473ffffffffffffffffffffffffffffffffffffffff1673ffffffffffffffffffffffffffffffffffffffff16815260200190815260200160002060008282546111109190612b16565b92505081905550816002600083815260200190815260200160002060006101000a81548173ffffffffffffffffffffffffffffffffffffffff021916908373ffffffffffffffffffffffffffffffffffffffff160217905550808273ffffffffffffffffffffffffffffffffffffffff16600073ffffffffffffffffffffffffffffffffffffffff167fddf252ad1be2c89b69c2b068fc378daa952ba7f163c4a11628f55a4df523b3ef60405160405180910390a46111d16000838361166c565b5050565b6111de82610b7b565b61121d576040517f08c379a000000000000000000000000000000000000000000000000000000000815260040161121490612931565b60405180910390fd5b80600a60008481526020019081526020016000209080519060200190611244929190611f91565b505050565b6001816000016000828254019250508190555050565b8173ffffffffffffffffffffffffffffffffffffffff168373ffffffffffffffffffffffffffffffffffffffff1614156112ce576040517f08c379a00000000000000000000000000000000000000000000000000000000081526004016112c590612891565b60405180910390fd5b80600560008573ffffffffffffffffffffffffffffffffffffffff1673ffffffffffffffffffffffffffffffffffffffff16815260200190815260200160002060008473ffffffffffffffffffffffffffffffffffffffff1673ffffffffffffffffffffffffffffffffffffffff16815260200190815260200160002060006101000a81548160ff0219169083151502179055508173ffffffffffffffffffffffffffffffffffffffff168373ffffffffffffffffffffffffffffffffffffffff167f17307eab39ab6107e8899845ad3d59bd9653f200f220920489ca2b5937696c31836040516113bf91906127b4565b60405180910390a3505050565b6113d7848484610d86565b6113e384848484611671565b611422576040517f08c379a000000000000000000000000000000000000000000000000000000000815260040161141990612811565b60405180910390fd5b50505050565b606061143382610b7b565b611472576040517f08c379a000000000000000000000000000000000000000000000000000000000815260040161146990612971565b60405180910390fd5b6000600a6000848152602001908152602001600020805461149290612c87565b80601f01602080910402602001604051908101604052809291908181526020018280546114be90612c87565b801561150b5780601f106114e05761010080835404028352916020019161150b565b820191906000526020600020905b8154815290600101906020018083116114ee57829003601f168201915b50505050509050600061151c611808565b9050600081511415611532578192505050611575565b60008251111561156757808260405160200161154f929190612729565b60405160208183030381529060405292505050611575565b6115708461181f565b925050505b919050565b60007f80ac58cd000000000000000000000000000000000000000000000000000000007bffffffffffffffffffffffffffffffffffffffffffffffffffffffff1916827bffffffffffffffffffffffffffffffffffffffffffffffffffffffff1916148061164557507f5b5e139f000000000000000000000000000000000000000000000000000000007bffffffffffffffffffffffffffffffffffffffffffffffffffffffff1916827bffffffffffffffffffffffffffffffffffffffffffffffffffffffff1916145b806116555750611654826118c6565b5b9050919050565b611667838383611930565b505050565b505050565b60006116928473ffffffffffffffffffffffffffffffffffffffff16611a44565b156117fb578373ffffffffffffffffffffffffffffffffffffffff1663150b7a026116bb610be7565b8786866040518563ffffffff1660e01b81526004016116dd9493929190612768565b602060405180830381600087803b1580156116f757600080fd5b505af192505050801561172857506040513d601f19601f820116820180604052508101906117259190612391565b60015b6117ab573d8060008114611758576040519150601f19603f3d011682016040523d82523d6000602084013e61175d565b606091505b506000815114156117a3576040517f08c379a000000000000000000000000000000000000000000000000000000000815260040161179a90612811565b60405180910390fd5b805181602001fd5b63150b7a0260e01b7bffffffffffffffffffffffffffffffffffffffffffffffffffffffff1916817bffffffffffffffffffffffffffffffffffffffffffffffffffffffff191614915050611800565b600190505b949350505050565b606060405180602001604052806000815250905090565b606061182a82610b7b565b611869576040517f08c379a0000000000000000000000000000000000000000000000000000000008152600401611860906129b1565b60405180910390fd5b6000611873611808565b9050600081511161189357604051806020016040528060008152506118be565b8061189d84611a67565b6040516020016118ae929190612729565b6040516020818303038152906040525b915050919050565b60007f01ffc9a7000000000000000000000000000000000000000000000000000000007bffffffffffffffffffffffffffffffffffffffffffffffffffffffff1916827bffffffffffffffffffffffffffffffffffffffffffffffffffffffff1916149050919050565b61193b838383611c14565b600073ffffffffffffffffffffffffffffffffffffffff168373ffffffffffffffffffffffffffffffffffffffff16141561197e5761197981611c19565b6119bd565b8173ffffffffffffffffffffffffffffffffffffffff168373ffffffffffffffffffffffffffffffffffffffff16146119bc576119bb8382611c62565b5b5b600073ffffffffffffffffffffffffffffffffffffffff168273ffffffffffffffffffffffffffffffffffffffff161415611a00576119fb81611dcf565b611a3f565b8273ffffffffffffffffffffffffffffffffffffffff168273ffffffffffffffffffffffffffffffffffffffff1614611a3e57611a3d8282611f12565b5b5b505050565b6000808273ffffffffffffffffffffffffffffffffffffffff163b119050919050565b60606000821415611aaf576040518060400160405280600181526020017f30000000000000000000000000000000000000000000000000000000000000008152509050611c0f565b600082905060005b60008214611ae1578080611aca90612cea565b915050600a82611ada9190612b6c565b9150611ab7565b60008167ffffffffffffffff811115611b23577f4e487b7100000000000000000000000000000000000000000000000000000000600052604160045260246000fd5b6040519080825280601f01601f191660200182016040528015611b555781602001600182028036833780820191505090505b5090505b60008514611c0857600182611b6e9190612b9d565b9150600a85611b7d9190612d33565b6030611b899190612b16565b60f81b818381518110611bc5577f4e487b7100000000000000000000000000000000000000000000000000000000600052603260045260246000fd5b60200101907effffffffffffffffffffffffffffffffffffffffffffffffffffffffffffff1916908160001a905350600a85611c019190612b6c565b9450611b59565b8093505050505b919050565b505050565b6008805490506009600083815260200190815260200160002081905550600881908060018154018082558091505060019003906000526020600020016000909190919091505550565b60006001611c6f84610899565b611c799190612b9d565b9050600060076000848152602001908152602001600020549050818114611d5e576000600660008673ffffffffffffffffffffffffffffffffffffffff1673ffffffffffffffffffffffffffffffffffffffff168152602001908152602001600020600084815260200190815260200160002054905080600660008773ffffffffffffffffffffffffffffffffffffffff1673ffffffffffffffffffffffffffffffffffffffff168152602001908152602001600020600084815260200190815260200160002081905550816007600083815260200190815260200160002081905550505b6007600084815260200190815260200160002060009055600660008573ffffffffffffffffffffffffffffffffffffffff1673ffffffffffffffffffffffffffffffffffffffff16815260200190815260200160002060008381526020019081526020016000206000905550505050565b60006001600880549050611de39190612b9d565b9050600060096000848152602001908152602001600020549050600060088381548110611e39577f4e487b7100000000000000000000000000000000000000000000000000000000600052603260045260246000fd5b906000526020600020015490508060088381548110611e81577f4e487b7100000000000000000000000000000000000000000000000000000000600052603260045260246000fd5b906000526020600020018190555081600960008381526020019081526020016000208190555060096000858152602001908152602001600020600090556008805480611ef6577f4e487b7100000000000000000000000000000000000000000000000000000000600052603160045260246000fd5b6001900381819060005260206000200160009055905550505050565b6000611f1d83610899565b905081600660008573ffffffffffffffffffffffffffffffffffffffff1673ffffffffffffffffffffffffffffffffffffffff168152602001908152602001600020600083815260200190815260200160002081905550806007600084815260200190815260200160002081905550505050565b828054611f9d90612c87565b90600052602060002090601f016020900481019282611fbf5760008555612006565b82601f10611fd857805160ff1916838001178555612006565b82800160010185558215612006579182015b82811115612005578251825591602001919060010190611fea565b5b5090506120139190612017565b5090565b5b80821115612030576000816000905550600101612018565b5090565b600061204761204284612a71565b612a4c565b90508281526020810184848401111561205f57600080fd5b61206a848285612c45565b509392505050565b600061208561208084612aa2565b612a4c565b90508281526020810184848401111561209d57600080fd5b6120a8848285612c45565b509392505050565b6000813590506120bf8161334d565b92915050565b6000813590506120d481613364565b92915050565b6000813590506120e98161337b565b92915050565b6000815190506120fe8161337b565b92915050565b600082601f83011261211557600080fd5b8135612125848260208601612034565b91505092915050565b600082601f83011261213f57600080fd5b813561214f848260208601612072565b91505092915050565b60008135905061216781613392565b92915050565b60006020828403121561217f57600080fd5b600061218d848285016120b0565b91505092915050565b600080604083850312156121a957600080fd5b60006121b7858286016120b0565b92505060206121c8858286016120b0565b9150509250929050565b6000806000606084860312156121e757600080fd5b60006121f5868287016120b0565b9350506020612206868287016120b0565b925050604061221786828701612158565b9150509250925092565b6000806000806080858703121561223757600080fd5b6000612245878288016120b0565b9450506020612256878288016120b0565b935050604061226787828801612158565b925050606085013567ffffffffffffffff81111561228457600080fd5b61229087828801612104565b91505092959194509250565b600080604083850312156122af57600080fd5b60006122bd858286016120b0565b92505060206122ce858286016120c5565b9150509250929050565b600080604083850312156122eb57600080fd5b60006122f9858286016120b0565b925050602083013567ffffffffffffffff81111561231657600080fd5b6123228582860161212e565b9150509250929050565b6000806040838503121561233f57600080fd5b600061234d858286016120b0565b925050602061235e85828601612158565b9150509250929050565b60006020828403121561237a57600080fd5b6000612388848285016120da565b91505092915050565b6000602082840312156123a357600080fd5b60006123b1848285016120ef565b91505092915050565b6000602082840312156123cc57600080fd5b60006123da84828501612158565b91505092915050565b6123ec81612bd1565b82525050565b6123fb81612be3565b82525050565b600061240c82612ad3565b6124168185612ae9565b9350612426818560208601612c54565b61242f81612e20565b840191505092915050565b600061244582612ade565b61244f8185612afa565b935061245f818560208601612c54565b61246881612e20565b840191505092915050565b600061247e82612ade565b6124888185612b0b565b9350612498818560208601612c54565b80840191505092915050565b60006124b1602b83612afa565b91506124bc82612e31565b604082019050919050565b60006124d4603283612afa565b91506124df82612e80565b604082019050919050565b60006124f7602583612afa565b915061250282612ecf565b604082019050919050565b600061251a601c83612afa565b915061252582612f1e565b602082019050919050565b600061253d602483612afa565b915061254882612f47565b604082019050919050565b6000612560601983612afa565b915061256b82612f96565b602082019050919050565b6000612583602c83612afa565b915061258e82612fbf565b604082019050919050565b60006125a6603883612afa565b91506125b18261300e565b604082019050919050565b60006125c9602a83612afa565b91506125d48261305d565b604082019050919050565b60006125ec602983612afa565b91506125f7826130ac565b604082019050919050565b600061260f602e83612afa565b915061261a826130fb565b604082019050919050565b6000612632602083612afa565b915061263d8261314a565b602082019050919050565b6000612655603183612afa565b915061266082613173565b604082019050919050565b6000612678602c83612afa565b9150612683826131c2565b604082019050919050565b600061269b602f83612afa565b91506126a682613211565b604082019050919050565b60006126be602183612afa565b91506126c982613260565b604082019050919050565b60006126e1603183612afa565b91506126ec826132af565b604082019050919050565b6000612704602c83612afa565b915061270f826132fe565b604082019050919050565b61272381612c3b565b82525050565b60006127358285612473565b91506127418284612473565b91508190509392505050565b600060208201905061276260008301846123e3565b92915050565b600060808201905061277d60008301876123e3565b61278a60208301866123e3565b612797604083018561271a565b81810360608301526127a98184612401565b905095945050505050565b60006020820190506127c960008301846123f2565b92915050565b600060208201905081810360008301526127e9818461243a565b905092915050565b6000602082019050818103600083015261280a816124a4565b9050919050565b6000602082019050818103600083015261282a816124c7565b9050919050565b6000602082019050818103600083015261284a816124ea565b9050919050565b6000602082019050818103600083015261286a8161250d565b9050919050565b6000602082019050818103600083015261288a81612530565b9050919050565b600060208201905081810360008301526128aa81612553565b9050919050565b600060208201905081810360008301526128ca81612576565b9050919050565b600060208201905081810360008301526128ea81612599565b9050919050565b6000602082019050818103600083015261290a816125bc565b9050919050565b6000602082019050818103600083015261292a816125df565b9050919050565b6000602082019050818103600083015261294a81612602565b9050919050565b6000602082019050818103600083015261296a81612625565b9050919050565b6000602082019050818103600083015261298a81612648565b9050919050565b600060208201905081810360008301526129aa8161266b565b9050919050565b600060208201905081810360008301526129ca8161268e565b9050919050565b600060208201905081810360008301526129ea816126b1565b9050919050565b60006020820190508181036000830152612a0a816126d4565b9050919050565b60006020820190508181036000830152612a2a816126f7565b9050919050565b6000602082019050612a46600083018461271a565b92915050565b6000612a56612a67565b9050612a628282612cb9565b919050565b6000604051905090565b600067ffffffffffffffff821115612a8c57612a8b612df1565b5b612a9582612e20565b9050602081019050919050565b600067ffffffffffffffff821115612abd57612abc612df1565b5b612ac682612e20565b9050602081019050919050565b600081519050919050565b600081519050919050565b600082825260208201905092915050565b600082825260208201905092915050565b600081905092915050565b6000612b2182612c3b565b9150612b2c83612c3b565b9250827fffffffffffffffffffffffffffffffffffffffffffffffffffffffffffffffff03821115612b6157612b60612d64565b5b828201905092915050565b6000612b7782612c3b565b9150612b8283612c3b565b925082612b9257612b91612d93565b5b828204905092915050565b6000612ba882612c3b565b9150612bb383612c3b565b925082821015612bc657612bc5612d64565b5b828203905092915050565b6000612bdc82612c1b565b9050919050565b60008115159050919050565b60007fffffffff0000000000000000000000000000000000000000000000000000000082169050919050565b600073ffffffffffffffffffffffffffffffffffffffff82169050919050565b6000819050919050565b82818337600083830152505050565b60005b83811015612c72578082015181840152602081019050612c57565b83811115612c81576000848401525b50505050565b60006002820490506001821680612c9f57607f821691505b60208210811415612cb357612cb2612dc2565b5b50919050565b612cc282612e20565b810181811067ffffffffffffffff82111715612ce157612ce0612df1565b5b80604052505050565b6000612cf582612c3b565b91507fffffffffffffffffffffffffffffffffffffffffffffffffffffffffffffffff821415612d2857612d27612d64565b5b600182019050919050565b6000612d3e82612c3b565b9150612d4983612c3b565b925082612d5957612d58612d93565b5b828206905092915050565b7f4e487b7100000000000000000000000000000000000000000000000000000000600052601160045260246000fd5b7f4e487b7100000000000000000000000000000000000000000000000000000000600052601260045260246000fd5b7f4e487b7100000000000000000000000000000000000000000000000000000000600052602260045260246000fd5b7f4e487b7100000000000000000000000000000000000000000000000000000000600052604160045260246000fd5b6000601f19601f8301169050919050565b7f455243373231456e756d657261626c653a206f776e657220696e646578206f7560008201527f74206f6620626f756e6473000000000000000000000000000000000000000000602082015250565b7f4552433732313a207472616e7366657220746f206e6f6e20455243373231526560008201527f63656976657220696d706c656d656e7465720000000000000000000000000000602082015250565b7f4552433732313a207472616e736665722066726f6d20696e636f72726563742060008201527f6f776e6572000000000000000000000000000000000000000000000000000000602082015250565b7f4552433732313a20746f6b656e20616c7265616479206d696e74656400000000600082015250565b7f4552433732313a207472616e7366657220746f20746865207a65726f2061646460008201527f7265737300000000000000000000000000000000000000000000000000000000602082015250565b7f4552433732313a20617070726f766520746f2063616c6c657200000000000000600082015250565b7f4552433732313a206f70657261746f7220717565727920666f72206e6f6e657860008201527f697374656e7420746f6b656e0000000000000000000000000000000000000000602082015250565b7f4552433732313a20617070726f76652063616c6c6572206973206e6f74206f7760008201527f6e6572206e6f7220617070726f76656420666f7220616c6c0000000000000000602082015250565b7f4552433732313a2062616c616e636520717565727920666f7220746865207a6560008201527f726f206164647265737300000000000000000000000000000000000000000000602082015250565b7f4552433732313a206f776e657220717565727920666f72206e6f6e657869737460008201527f656e7420746f6b656e0000000000000000000000000000000000000000000000602082015250565b7f45524337323155524953746f726167653a2055524920736574206f66206e6f6e60008201527f6578697374656e7420746f6b656e000000000000000000000000000000000000602082015250565b7f4552433732313a206d696e7420746f20746865207a65726f2061646472657373600082015250565b7f45524337323155524953746f726167653a2055524920717565727920666f722060008201527f6e6f6e6578697374656e7420746f6b656e000000000000000000000000000000602082015250565b7f4552433732313a20617070726f76656420717565727920666f72206e6f6e657860008201527f697374656e7420746f6b656e0000000000000000000000000000000000000000602082015250565b7f4552433732314d657461646174613a2055524920717565727920666f72206e6f60008201527f6e6578697374656e7420746f6b656e0000000000000000000000000000000000602082015250565b7f4552433732313a20617070726f76616c20746f2063757272656e74206f776e6560008201527f7200000000000000000000000000000000000000000000000000000000000000602082015250565b7f4552433732313a207472616e736665722063616c6c6572206973206e6f74206f60008201527f776e6572206e6f7220617070726f766564000000000000000000000000000000602082015250565b7f455243373231456e756d657261626c653a20676c6f62616c20696e646578206f60008201527f7574206f6620626f756e64730000000000000000000000000000000000000000602082015250565b61335681612bd1565b811461336157600080fd5b50565b61336d81612be3565b811461337857600080fd5b50565b61338481612bef565b811461338f57600080fd5b50565b61339b81612c3b565b81146133a657600080fd5b5056fea26469706673582212209aea4b6af7f1dc56a545c7300682ccdcb581675789085315fd1460c8ce6cef3c64736f6c63430008040033",
  "linkReferences": {},
  "deployedLinkReferences": {}
}